:020000040800F2
:100000000000022041000008A9000008A900000823
:10001000A9000008A9000008A900000800000000CD
:10002000000000000000000000000000A90000081F
:10003000A900000800000000A9000008A9000008AD
:1000400008B500F003F800F030F8FEE782B0114B7D
:100050000193114B009307E0019A131D0193009B3C
:10006000191D009112681A60009B0C4A9342F3D349
:100070000B4B009305E0009B00221A60009B0433A9
:100080000093009B074A9342F5D300BF00BF02B024
:10009000704700BFFC0100080000002000000020A5
:1000A0000000002000000020FEE708B500F00AF87C
:1000B00000F064F800F074F84FF47A7000F08AF8F9
:1000C000F8E70000284B1B68274A43F4803313608D
:1000D00000BF254B1B6803F40033002BF9D0234BE2
:1000E0001B68224A43F080531360214B1B68204A4F
:1000F00043F4404313601F4B1B681E4A43F4E06304
:1001000043F003031360194B1B68184A43F406338A
:1001100043F482731360154B1B68144A43F4800345
:100120001360154B1B68144A43F4805313600E4B45
:100130001B680D4A43F08073136000BF0A4B1B68B5
:1001400003F00073002BF9D00B4B1B680A4A43F0F5
:100150000203136000BF084B1B6803F00803082B61
:10016000F9D100BF00BF704700380240403802405C
:1001700000700040003C024008380240064B1B68FB
:10018000054A43F001031360044B1B68034A43F420
:100190008063136000BF70473038024000000240A7
:1001A00082B00A4B1B680193094B1A68019B1B0420
:1001B00003F40011019BDB4303F020030B430449CC
:1001C00013430B6000BF02B0704700BF1400024031
:1001D0001800024084B00190019B4FF47A7202FB38
:1001E00003F3039300E000BF039B5A1E0392002B0E
:0A01F000F9D100BF00BF04B0704752
:0400000508000041AE
:00000001FF
