:020000040800F2
:100000000000022075030008C5030008C5030008AE
:10001000C5030008C5030008C50300080000000070
:10002000000000000000000000000000C503000800
:10003000C503000800000000C5030008C503000850
:10004000C5030008C5030008C5030008C503000870
:10005000C5030008C5030008C5030008C503000860
:10006000C5030008C5030008C5030008C503000850
:10007000C5030008C5030008C5030008C503000840
:10008000C5030008C5030008C50300080000000000
:10009000000000000000000000000000C503000890
:1000A000C5030008C5030008C5030008C503000810
:1000B000C5030008C5030008C5030008C503000800
:1000C000C5030008C5030008C5030008C5030008F0
:1000D000C5030008C5030008C503000800000000B0
:1000E000C5030008C5030008C503000800000000A0
:1000F000000000000000000000000000C503000830
:1001000000000000C5030008C5030008C50300087F
:1001100000000000000000000000000000000000DF
:10012000C5030008C5030008C5030008C50300088F
:10013000C5030008000000000000000000000000EF
:10014000000000000000000000000000C5030008DF
:10015000C5030008C5030008C5030008C50300085F
:10016000C5030008C50300080000000000000000EF
:10017000000000000000000000000000000000007F
:1001800000000000C503000800000000000000009F
:08019000C5030008C5030008C7
:1001980010B5054C237833B9044B13B10448AFF3B9
:1001A80000800123237010BD000000200000000023
:1001B8001004000808B5034B1BB103490348AFF30B
:1001C800008008BD000000000400002010040008A2
:1001D80080B500AF00F00AF800F066F800F084F887
:1001E8000346002BFAD000F093F8F7E780B400AF8D
:1001F8002A4B1B68294A43F48033136000BF274BFE
:100208001B6803F40033002BF9D0244B1B6C234AE2
:1002180043F080531364224B1B68214A43F4404344
:100228001360204B1B681F4A43F4E06343F0030349
:1002380013601A4B5B68194A43F4063343F482731C
:100248005360164B5B68154A43F480035360134BA5
:100258009B68124A43F480539360104B1B680F4A03
:1002680043F08073136000BF0C4B1B6803F00073EE
:10027800002BF9D0094B9B68084A43F002039360AE
:1002880000BF064B9B6803F00803082BF9D100BF99
:1002980000BFBD465DF8047B704700BF00380240D0
:1002A80000700040003C024080B400AF0B4B1B6B59
:1002B8000A4A43F005031363094B1B68084A43F4D1
:1002C80080631360074BDB68064A43F08063D360A2
:1002D80000BFBD465DF8047B704700BF0038024090
:1002E800000002400008024080B400AF074B1B69C1
:1002F80003F40053B3F5005F14BF01230023DBB2FE
:100308001846BD465DF8047B704700BF00080240F0
:1003180080B483B000AF0B4B5B697B60094B9A6973
:100328007B681B0403F400117B68DB4303F02003A4
:100338000B43044913438B6100BF0C37BD465DF87E
:10034800047B70470000024080B400AF064BD3F82E
:100358008830054A43F47003C2F8883000BFBD46B0
:100368005DF8047B704700BF00ED00E0DFF834D093
:100378000D480E490E4A002302E0D458C4500433F5
:10038800C4188C42F9D30B4A0B4C002301E01360CC
:100398000432A242FBD3FFF7D7FF00F011F8FFF7B2
:1003A80017FF704700000220000000200000002016
:1003B80030040008000000201C000020FEE70000B8
:1003C80070B50D4D0D4C641BA4100026A64209D132
:1003D8000B4D0C4C00F018F8641BA4100026A64224
:1003E80005D170BD55F8043B98470136EEE755F83E
:1003F800043B98470136F2E728040008280400085F
:10040800280400082C040008F8B500BFF8BC08BC94
:100418009E467047F8B500BFF8BC08BC9E467047BA
:04042800BD0100080A
:04042C00990100082A
:040000050800037577
:00000001FF
