:020000040800F2
:100000000000022055030008A5030008A50300080E
:10001000A5030008A5030008A503000800000000D0
:10002000000000000000000000000000A503000820
:10003000A503000800000000A5030008A5030008B0
:10004000A5030008A5030008A5030008A5030008F0
:10005000A5030008A5030008A5030008A5030008E0
:10006000A5030008A5030008A5030008A5030008D0
:10007000A5030008A5030008A5030008A5030008C0
:10008000A5030008A5030008A50300080000000060
:10009000000000000000000000000000A5030008B0
:1000A000A5030008A5030008A5030008A503000890
:1000B000A5030008A5030008A5030008A503000880
:1000C000A5030008A5030008A5030008A503000870
:1000D000A5030008A5030008A50300080000000010
:1000E000A5030008A5030008A50300080000000000
:1000F000000000000000000000000000A503000850
:1001000000000000A5030008A5030008A5030008DF
:1001100000000000000000000000000000000000DF
:10012000A5030008A5030008A5030008A50300080F
:10013000A50300080000000000000000000000000F
:10014000000000000000000000000000A5030008FF
:10015000A5030008A5030008A5030008A5030008DF
:10016000A5030008A503000800000000000000002F
:10017000000000000000000000000000000000007F
:1001800000000000A50300080000000000000000BF
:08019000A5030008A503000807
:1001980010B5054C237833B9044B13B10448AFF3B9
:1001A80000800123237010BD000000200000000023
:1001B800F003000808B5034B1BB103490348AFF32C
:1001C800008008BD0000000004000020F0030008C3
:1001D80080B500AF00F01AF800F074F8094B9B697D
:1001E800084A43F020039361074800F08BF8054B59
:1001F8009B69044A43F400139361034800F082F8B2
:10020800ECE700BF0000024040420F0080B400AF9E
:10021800284B1B68274A43F48033136000BF254BE3
:100228001B6803F40033002BF9D0224B1B6C214AC6
:1002380043F080531364204B1B681F4A43F4004368
:1002480013601E4B1B681D4A43F4E06343F002032E
:100258001360184B174A9B689360164B9B68154AA6
:1002680043F480539360134B124A9B689360114B7D
:10027800134A5A600F4B1B680E4A43F08073136091
:1002880000BF0C4B1B6803F00073002BF9D0094B1F
:100298009B68084A43F00203936000BF054B9B68C4
:1002A80003F00C03082BF9D100BF00BFBD465DF871
:1002B800047B70470038024000700040003C024058
:1002C8000415420080B400AF0B4B1B6B0A4A43F085
:1002D80005031363094B1B68084A43F480631360E2
:1002E800074BDB68064A43F48063D36000BFBD4612
:1002F8005DF8047B704700BF0038024000000240F0
:100308000008024080B483B000AF786000BF7B680B
:100318005A1E7A60002BFAD100BF00BF0C37BD46C9
:100328005DF8047B7047000080B400AF064BD3F83B
:100338008830054A43F47003C2F8883000BFBD46D0
:100348005DF8047B704700BF00ED00E0DFF834D0B3
:100358000D480E490E4A002302E0D458C450043315
:10036800C4188C42F9D30B4A0B4C002301E01360EC
:100378000432A242FBD3FFF7D7FF00F011F8FFF7D2
:1003880027FF7047000002202006002020060020DA
:10039800100400082006002020060020FEE70000C8
:1003A80070B50D4D0D4C641BA4100026A64209D152
:1003B8000B4D0C4C00F018F8641BA4100026A64244
:1003C80005D170BD55F8043B98470136EEE755F85E
:1003D800043B98470136F2E70804000808040008BF
:1003E800080400080C040008F8B500BFF8BC08BCF5
:1003F8009E467047F8B500BFF8BC08BC9E467047DB
:04040800BD0100082A
:04040C00990100084A
:040000050800035597
:00000001FF
