:020000040800F2
:10000000000002206D030008BD030008BD030008C6
:10001000BD030008BD030008BD0300080000000088
:10002000000000000000000000000000BD03000808
:10003000BD03000800000000BD030008BD03000868
:10004000BD030008BD030008BD030008BD03000890
:10005000BD030008BD030008BD030008BD03000880
:10006000BD030008BD030008BD030008BD03000870
:10007000BD030008BD030008BD030008BD03000860
:10008000BD030008BD030008BD0300080000000018
:10009000000000000000000000000000BD03000898
:1000A000BD030008BD030008BD030008BD03000830
:1000B000BD030008BD030008BD030008BD03000820
:1000C000BD030008BD030008BD030008BD03000810
:1000D000BD030008BD030008BD03000800000000C8
:1000E000BD030008BD030008BD03000800000000B8
:1000F000000000000000000000000000BD03000838
:1001000000000000BD030008BD030008BD03000897
:1001100000000000000000000000000000000000DF
:10012000BD030008BD030008BD030008BD030008AF
:10013000BD030008000000000000000000000000F7
:10014000000000000000000000000000BD030008E7
:10015000BD030008BD030008BD030008BD0300087F
:10016000BD030008BD0300080000000000000000FF
:10017000000000000000000000000000000000007F
:1001800000000000BD0300080000000000000000A7
:08019000BD030008BD030008D7
:1001980010B5054C237833B9044B13B10448AFF3B9
:1001A80000800123237010BD000000200000000023
:1001B8000804000808B5034B1BB103490348AFF313
:1001C800008008BD000000000400002008040008AA
:1001D80080B500AF00F00AF800F066F800F07CF88F
:1001E8004FF4FA6000F094F8F8E7000080B400AF2C
:1001F8002A4B1B68294A43F48033136000BF274BFE
:100208001B6803F40033002BF9D0244B1B6C234AE2
:1002180043F080531364224B1B68214A43F4404344
:100228001360204B1B681F4A43F4E06343F0030349
:1002380013601A4B5B68194A43F4063343F482731C
:100248005360164B5B68154A43F480035360134BA5
:100258009B68124A43F480539360104B1B680F4A03
:1002680043F08073136000BF0C4B1B6803F00073EE
:10027800002BF9D0094B9B68084A43F002039360AE
:1002880000BF064B9B6803F00803082BF9D100BF99
:1002980000BFBD465DF8047B704700BF00380240D0
:1002A80000700040003C024080B400AF084B1B6B5C
:1002B800074A43F001031363064B1B68054A43F4DE
:1002C8008063136000BFBD465DF8047B704700BFC4
:1002D800003802400000024080B483B000AF0B4BEE
:1002E8005B697B60094B9A697B681B0403F4001106
:1002F8007B68DB4303F020030B43044913438B6102
:1003080000BF0C37BD465DF8047B70470000024013
:1003180080B485B000AF78607B684FF47A7202FBD6
:1003280003F3FB6000BFFB685A1EFA60002BFAD18A
:1003380000BF00BF1437BD465DF8047B704700005E
:1003480080B400AF064BD3F88830054A43F47003F5
:10035800C2F8883000BFBD465DF8047B704700BF17
:1003680000ED00E0DFF834D00D480E490E4A0023B6
:1003780002E0D458C4500433C4188C42F9D30B4A51
:100388000B4C002301E013600432A242FBD3FFF7B9
:10039800D7FF00F011F8FFF71BFF7047000002209D
:1003A800200600202006002028040008200600203F
:1003B80020060020FEE7000070B50D4D0D4C641BB3
:1003C800A4100026A64209D10B4D0C4C00F018F8D9
:1003D800641BA4100026A64205D170BD55F8043B45
:1003E80098470136EEE755F8043B98470136F2E79F
:1003F8002004000820040008200400082404000841
:10040800F8B500BFF8BC08BC9E467047F8B500BFF9
:08041800F8BC08BC9E467047C9
:04042000BD01000812
:040424009901000832
:040000050800036D7F
:00000001FF
