:020000040800F2
:1000000000000220CD0200081D0300081D030008A7
:100010001D0300081D0300081D0300080000000068
:100020000000000000000000000000001D030008A8
:100030001D030008000000001D0300081D03000848
:100040001D0300081D0300081D0300081D03000810
:100050001D0300081D0300081D0300081D03000800
:100060001D0300081D0300081D0300081D030008F0
:100070001D0300081D0300081D0300081D030008E0
:100080001D0300081D0300081D03000800000000F8
:100090000000000000000000000000001D03000838
:1000A0001D0300081D0300081D0300081D030008B0
:1000B0001D0300081D0300081D0300081D030008A0
:1000C0001D0300081D0300081D0300081D03000890
:1000D0001D0300081D0300081D03000800000000A8
:1000E0001D0300081D0300081D0300080000000098
:1000F0000000000000000000000000001D030008D8
:10010000000000001D0300081D0300081D03000877
:1001100000000000000000000000000000000000DF
:100120001D0300081D0300081D0300081D0300082F
:100130001D03000800000000000000000000000097
:100140000000000000000000000000001D03000887
:100150001D0300081D0300081D0300081D030008FF
:100160001D0300081D03000800000000000000003F
:10017000000000000000000000000000000000007F
:10018000000000001D030008000000000000000047
:080190001D0300081D03000817
:1001980010B5054C237833B9044B13B10448AFF3B9
:1001A80000800123237010BD000000200000000023
:1001B8006803000808B5034B1BB103490348AFF3B4
:1001C800008008BD0000000004000020680300084B
:1001D8001D4A136843F4803313601B4B1B6813F4E8
:1001E800003FFAD0184B1A6C42F080521A64174933
:1001F8000A6842F400420A6001F5E6310A6842F4EE
:10020800E06242F002020A609A689A609A6842F4D0
:1002180080529A609A689A600D4A5A601A6842F049
:1002280080721A60084B1B6813F0007FFAD0064AE8
:10023800936843F002039360034B9B6803F00C033D
:10024800082BF9D1704700BF003802400070004009
:1002580004154200084A136B43F005031363A2F523
:100268006052136843F48063136002F50062D36838
:1002780043F48063D36070470038024008B5FFF745
:10028800A7FFFFF7E7FF04E0074A936943F020035D
:100298009361064B1B6913F4005FF5D1024A936919
:1002A80043F400139361F4E70000024000080240A1
:1002B800034AD2F8883043F47003C2F88830704794
:1002C80000ED00E0DFF834D00D480E490E4A002357
:1002D80002E0D458C4500433C4188C42F9D30B4AF2
:1002E8000B4C002301E013600432A242FBD3FFF75A
:1002F800DFFF00F011F8FFF7C1FF70470000022090
:100308002006002020060020880300082006002080
:1003180020060020FEE7000070B50D4D0D4C641B53
:10032800A4100026A64209D10B4D0C4C00F018F879
:10033800641BA4100026A64205D170BD55F8043BE5
:1003480098470136EEE755F8043B98470136F2E73F
:100358008003000880030008800300088403000865
:10036800F8B500BFF8BC08BC9E467047F8B500BF9A
:08037800F8BC08BC9E4670476A
:04038000BD010008B3
:0403840099010008D3
:04000005080002CD20
:00000001FF
